{
  "_format": "hh-sol-artifact-1",
  "contractName": "DevilTrainLottery",
  "sourceName": "contracts/DevilTrainLotto.sol",
  "abi": [
    {
      "inputs": [
        {
          "internalType": "address",
          "name": "vrfCoordinator",
          "type": "address"
        },
        {
          "internalType": "address",
          "name": "link",
          "type": "address"
        },
        {
          "internalType": "bytes32",
          "name": "keyHash",
          "type": "bytes32"
        },
        {
          "internalType": "uint256",
          "name": "fee",
          "type": "uint256"
        },
        {
          "internalType": "uint8",
          "name": "_maxRiders",
          "type": "uint8"
        },
        {
          "internalType": "uint256",
          "name": "_ticketPrice",
          "type": "uint256"
        },
        {
          "internalType": "address payable",
          "name": "_house",
          "type": "address"
        }
      ],
      "stateMutability": "nonpayable",
      "type": "constructor"
    },
    {
      "anonymous": false,
      "inputs": [
        {
          "indexed": true,
          "internalType": "uint256",
          "name": "current",
          "type": "uint256"
        },
        {
          "indexed": true,
          "internalType": "uint8",
          "name": "maxriders",
          "type": "uint8"
        }
      ],
      "name": "AwaitingRiders",
      "type": "event"
    },
    {
      "anonymous": false,
      "inputs": [
        {
          "indexed": true,
          "internalType": "address",
          "name": "rider",
          "type": "address"
        }
      ],
      "name": "NewRider",
      "type": "event"
    },
    {
      "anonymous": false,
      "inputs": [
        {
          "indexed": true,
          "internalType": "address",
          "name": "from",
          "type": "address"
        },
        {
          "indexed": true,
          "internalType": "address",
          "name": "to",
          "type": "address"
        }
      ],
      "name": "OwnershipTransferRequested",
      "type": "event"
    },
    {
      "anonymous": false,
      "inputs": [
        {
          "indexed": true,
          "internalType": "address",
          "name": "from",
          "type": "address"
        },
        {
          "indexed": true,
          "internalType": "address",
          "name": "to",
          "type": "address"
        }
      ],
      "name": "OwnershipTransferred",
      "type": "event"
    },
    {
      "anonymous": false,
      "inputs": [
        {
          "indexed": true,
          "internalType": "uint16",
          "name": "round",
          "type": "uint16"
        },
        {
          "indexed": true,
          "internalType": "address payable",
          "name": "winner",
          "type": "address"
        }
      ],
      "name": "ResultArrived",
      "type": "event"
    },
    {
      "anonymous": false,
      "inputs": [
        {
          "indexed": true,
          "internalType": "address payable[]",
          "name": "riders",
          "type": "address[]"
        },
        {
          "indexed": true,
          "internalType": "bytes32",
          "name": "requestId",
          "type": "bytes32"
        }
      ],
      "name": "TrainFull",
      "type": "event"
    },
    {
      "stateMutability": "payable",
      "type": "fallback"
    },
    {
      "inputs": [],
      "name": "acceptOwnership",
      "outputs": [],
      "stateMutability": "nonpayable",
      "type": "function"
    },
    {
      "inputs": [],
      "name": "acceptingRiders",
      "outputs": [
        {
          "internalType": "bool",
          "name": "",
          "type": "bool"
        }
      ],
      "stateMutability": "view",
      "type": "function"
    },
    {
      "inputs": [],
      "name": "buyTicket",
      "outputs": [],
      "stateMutability": "payable",
      "type": "function"
    },
    {
      "inputs": [],
      "name": "emergencyReboot",
      "outputs": [],
      "stateMutability": "payable",
      "type": "function"
    },
    {
      "inputs": [],
      "name": "emergencyRefund",
      "outputs": [],
      "stateMutability": "payable",
      "type": "function"
    },
    {
      "inputs": [],
      "name": "fee",
      "outputs": [
        {
          "internalType": "uint256",
          "name": "",
          "type": "uint256"
        }
      ],
      "stateMutability": "view",
      "type": "function"
    },
    {
      "inputs": [],
      "name": "getBalance",
      "outputs": [
        {
          "internalType": "uint256",
          "name": "",
          "type": "uint256"
        }
      ],
      "stateMutability": "view",
      "type": "function"
    },
    {
      "inputs": [],
      "name": "getHouse",
      "outputs": [
        {
          "internalType": "address payable",
          "name": "",
          "type": "address"
        }
      ],
      "stateMutability": "view",
      "type": "function"
    },
    {
      "inputs": [],
      "name": "getRiderCount",
      "outputs": [
        {
          "internalType": "uint256",
          "name": "",
          "type": "uint256"
        }
      ],
      "stateMutability": "view",
      "type": "function"
    },
    {
      "inputs": [],
      "name": "getRiders",
      "outputs": [
        {
          "internalType": "address payable[]",
          "name": "",
          "type": "address[]"
        }
      ],
      "stateMutability": "view",
      "type": "function"
    },
    {
      "inputs": [],
      "name": "getWinner",
      "outputs": [
        {
          "internalType": "address payable",
          "name": "",
          "type": "address"
        }
      ],
      "stateMutability": "view",
      "type": "function"
    },
    {
      "inputs": [],
      "name": "keyHash",
      "outputs": [
        {
          "internalType": "bytes32",
          "name": "",
          "type": "bytes32"
        }
      ],
      "stateMutability": "view",
      "type": "function"
    },
    {
      "inputs": [],
      "name": "maxRiders",
      "outputs": [
        {
          "internalType": "uint8",
          "name": "",
          "type": "uint8"
        }
      ],
      "stateMutability": "view",
      "type": "function"
    },
    {
      "inputs": [],
      "name": "owner",
      "outputs": [
        {
          "internalType": "address",
          "name": "",
          "type": "address"
        }
      ],
      "stateMutability": "view",
      "type": "function"
    },
    {
      "inputs": [
        {
          "internalType": "bytes32",
          "name": "requestId",
          "type": "bytes32"
        },
        {
          "internalType": "uint256",
          "name": "randomness",
          "type": "uint256"
        }
      ],
      "name": "rawFulfillRandomness",
      "outputs": [],
      "stateMutability": "nonpayable",
      "type": "function"
    },
    {
      "inputs": [
        {
          "internalType": "uint256",
          "name": "",
          "type": "uint256"
        }
      ],
      "name": "riders",
      "outputs": [
        {
          "internalType": "address payable",
          "name": "",
          "type": "address"
        }
      ],
      "stateMutability": "view",
      "type": "function"
    },
    {
      "inputs": [
        {
          "internalType": "bool",
          "name": "_acceptingRiders",
          "type": "bool"
        }
      ],
      "name": "setAcceptingRiders",
      "outputs": [],
      "stateMutability": "nonpayable",
      "type": "function"
    },
    {
      "inputs": [
        {
          "internalType": "uint256",
          "name": "fee",
          "type": "uint256"
        }
      ],
      "name": "setFee",
      "outputs": [],
      "stateMutability": "nonpayable",
      "type": "function"
    },
    {
      "inputs": [
        {
          "internalType": "address payable",
          "name": "_newHouse",
          "type": "address"
        }
      ],
      "name": "setHouse",
      "outputs": [],
      "stateMutability": "nonpayable",
      "type": "function"
    },
    {
      "inputs": [
        {
          "internalType": "bytes32",
          "name": "keyHash",
          "type": "bytes32"
        }
      ],
      "name": "setKeyHash",
      "outputs": [],
      "stateMutability": "nonpayable",
      "type": "function"
    },
    {
      "inputs": [
        {
          "internalType": "uint8",
          "name": "_maxRiders",
          "type": "uint8"
        }
      ],
      "name": "setMaxRiders",
      "outputs": [],
      "stateMutability": "nonpayable",
      "type": "function"
    },
    {
      "inputs": [
        {
          "internalType": "uint256",
          "name": "_ticketPrice",
          "type": "uint256"
        }
      ],
      "name": "setTicketPrice",
      "outputs": [],
      "stateMutability": "nonpayable",
      "type": "function"
    },
    {
      "inputs": [],
      "name": "ticketPrice",
      "outputs": [
        {
          "internalType": "uint256",
          "name": "",
          "type": "uint256"
        }
      ],
      "stateMutability": "view",
      "type": "function"
    },
    {
      "inputs": [],
      "name": "ticketSales",
      "outputs": [
        {
          "internalType": "uint256",
          "name": "",
          "type": "uint256"
        }
      ],
      "stateMutability": "view",
      "type": "function"
    },
    {
      "inputs": [
        {
          "internalType": "address",
          "name": "to",
          "type": "address"
        }
      ],
      "name": "transferOwnership",
      "outputs": [],
      "stateMutability": "nonpayable",
      "type": "function"
    },
    {
      "inputs": [],
      "name": "tripsTaken",
      "outputs": [
        {
          "internalType": "uint16",
          "name": "",
          "type": "uint16"
        }
      ],
      "stateMutability": "view",
      "type": "function"
    },
    {
      "inputs": [],
      "name": "withdrawAllMoney",
      "outputs": [],
      "stateMutability": "payable",
      "type": "function"
    },
    {
      "inputs": [
        {
          "internalType": "address",
          "name": "_to",
          "type": "address"
        },
        {
          "internalType": "uint256",
          "name": "_value",
          "type": "uint256"
        }
      ],
      "name": "withdrawLINK",
      "outputs": [],
      "stateMutability": "nonpayable",
      "type": "function"
    },
    {
      "stateMutability": "payable",
      "type": "receive"
    }
  ],
  "bytecode": "0x60c06040523480156200001157600080fd5b506040516200331d3803806200331d8339818101604052810190620000379190620003e9565b3380600089898173ffffffffffffffffffffffffffffffffffffffff1660a08173ffffffffffffffffffffffffffffffffffffffff1660601b815250508073ffffffffffffffffffffffffffffffffffffffff1660808173ffffffffffffffffffffffffffffffffffffffff1660601b815250505050600073ffffffffffffffffffffffffffffffffffffffff168273ffffffffffffffffffffffffffffffffffffffff16141562000120576040517f08c379a00000000000000000000000000000000000000000000000000000000081526004016200011790620004ea565b60405180910390fd5b81600160006101000a81548173ffffffffffffffffffffffffffffffffffffffff021916908373ffffffffffffffffffffffffffffffffffffffff160217905550600073ffffffffffffffffffffffffffffffffffffffff168173ffffffffffffffffffffffffffffffffffffffff1614620001a857620001a7816200024460201b60201c565b5b505050846003819055508360048190555080600560006101000a81548173ffffffffffffffffffffffffffffffffffffffff021916908373ffffffffffffffffffffffffffffffffffffffff16021790555082600760006101000a81548160ff021916908360ff160217905550816006819055506001600760016101000a81548160ff0219169083151502179055505050505050505062000681565b3373ffffffffffffffffffffffffffffffffffffffff168173ffffffffffffffffffffffffffffffffffffffff161415620002b6576040517f08c379a0000000000000000000000000000000000000000000000000000000008152600401620002ad906200050c565b60405180910390fd5b80600260006101000a81548173ffffffffffffffffffffffffffffffffffffffff021916908373ffffffffffffffffffffffffffffffffffffffff1602179055508073ffffffffffffffffffffffffffffffffffffffff16600160009054906101000a900473ffffffffffffffffffffffffffffffffffffffff1673ffffffffffffffffffffffffffffffffffffffff167fed8889f560326eb138920d842192f0eb3dd22b4f139c87a2c57538e05bae127860405160405180910390a350565b6000815190506200038781620005ff565b92915050565b6000815190506200039e8162000619565b92915050565b600081519050620003b58162000633565b92915050565b600081519050620003cc816200064d565b92915050565b600081519050620003e38162000667565b92915050565b600080600080600080600060e0888a0312156200040b576200040a620005a8565b5b60006200041b8a828b0162000376565b97505060206200042e8a828b0162000376565b9650506040620004418a828b01620003a4565b9550506060620004548a828b01620003bb565b9450506080620004678a828b01620003d2565b93505060a06200047a8a828b01620003bb565b92505060c06200048d8a828b016200038d565b91505092959891949750929550565b6000620004ab6018836200052e565b9150620004b882620005ad565b602082019050919050565b6000620004d26017836200052e565b9150620004df82620005d6565b602082019050919050565b6000602082019050818103600083015262000505816200049c565b9050919050565b600060208201905081810360008301526200052781620004c3565b9050919050565b600082825260208201905092915050565b60006200054c8262000571565b9050919050565b6000620005608262000571565b9050919050565b6000819050919050565b600073ffffffffffffffffffffffffffffffffffffffff82169050919050565b6000819050919050565b600060ff82169050919050565b600080fd5b7f43616e6e6f7420736574206f776e657220746f207a65726f0000000000000000600082015250565b7f43616e6e6f74207472616e7366657220746f2073656c66000000000000000000600082015250565b6200060a816200053f565b81146200061657600080fd5b50565b620006248162000553565b81146200063057600080fd5b50565b6200063e8162000567565b81146200064a57600080fd5b50565b620006588162000591565b81146200066457600080fd5b50565b62000672816200059b565b81146200067e57600080fd5b50565b60805160601c60a05160601c612c5b620006c260003960008181610e91015261193c015260008181610f350152818161163801526119000152612c5b6000f3fe6080604052600436106101bb5760003560e01c806379ba5097116100ec578063a50957781161008a578063ddca3f4311610064578063ddca3f4314610557578063dfc696c714610582578063edca914c146105ad578063f2fde38b146105b7576101c2565b8063a5095778146104d6578063b00fa21a14610501578063bf2282be1461052c576101c2565b80638e7ea5b2116100c65780638e7ea5b21461043057806394985ddd1461045b578063983fbab21461048457806398544710146104ad576101c2565b806379ba5097146103c55780637f2a8a80146103dc5780638da5cb5b14610405576101c2565b8063206ab352116101595780633ec37e90116101335780633ec37e901461030b57806361728f3914610348578063629457ab1461037357806369fe0e2d1461039c576101c2565b8063206ab352146102ad5780633494cf65146102d65780633b1a699a14610301576101c2565b806315981650116101955780631598165014610245578063160c56381461026e57806316bfe25c146102995780631b52b9de146102a3576101c2565b806304e2064f146101c457806312065fe0146101ef5780631209b1f61461021a576101c2565b366101c257005b005b3480156101d057600080fd5b506101d96105e0565b6040516101e6919061221c565b60405180910390f35b3480156101fb57600080fd5b5061020461060a565b60405161021191906124ff565b60405180910390f35b34801561022657600080fd5b5061022f610612565b60405161023c91906124ff565b60405180910390f35b34801561025157600080fd5b5061026c60048036038101906102679190611d7a565b610618565b005b34801561027a57600080fd5b5061028361062a565b604051610290919061229e565b60405180910390f35b6102a16106b8565b005b6102ab6108d3565b005b3480156102b957600080fd5b506102d460048036038101906102cf9190611cb3565b6109ac565b005b3480156102e257600080fd5b506102eb6109d1565b6040516102f891906124ff565b60405180910390f35b6103096109d7565b005b34801561031757600080fd5b50610332600480360381019061032d9190611d7a565b610b90565b60405161033f919061221c565b60405180910390f35b34801561035457600080fd5b5061035d610bcf565b60405161036a91906122db565b60405180910390f35b34801561037f57600080fd5b5061039a60048036038101906103959190611dd4565b610bd9565b005b3480156103a857600080fd5b506103c360048036038101906103be9190611d7a565b610c46565b005b3480156103d157600080fd5b506103da610c58565b005b3480156103e857600080fd5b5061040360048036038101906103fe9190611c46565b610def565b005b34801561041157600080fd5b5061041a610e3b565b6040516104279190612201565b60405180910390f35b34801561043c57600080fd5b50610445610e65565b604051610452919061221c565b60405180910390f35b34801561046757600080fd5b50610482600480360381019061047d9190611d3a565b610e8f565b005b34801561049057600080fd5b506104ab60048036038101906104a69190611c73565b610f2b565b005b3480156104b957600080fd5b506104d460048036038101906104cf9190611d0d565b611023565b005b3480156104e257600080fd5b506104eb611035565b6040516104f891906124ff565b60405180910390f35b34801561050d57600080fd5b50610516611042565b604051610523919061251a565b60405180910390f35b34801561053857600080fd5b50610541611055565b60405161054e91906124e4565b60405180910390f35b34801561056357600080fd5b5061056c611069565b60405161057991906124ff565b60405180910390f35b34801561058e57600080fd5b50610597611073565b6040516105a491906122c0565b60405180910390f35b6105b5611086565b005b3480156105c357600080fd5b506105de60048036038101906105d99190611c19565b61132e565b005b6000600560009054906101000a900473ffffffffffffffffffffffffffffffffffffffff16905090565b600047905090565b60065481565b610620611342565b8060068190555050565b606060088054806020026020016040519081016040528092919081815260200182805480156106ae57602002820191906000526020600020905b8160009054906101000a900473ffffffffffffffffffffffffffffffffffffffff1673ffffffffffffffffffffffffffffffffffffffff1681526020019060010190808311610664575b5050505050905090565b6106c0611342565b6001600960008282829054906101000a900461ffff166106e091906126f7565b92506101000a81548161ffff021916908361ffff16021790555060088054905060065461070d919061269d565b600a600082825461071e919061272b565b92505081905550600047905060006008805490508261073d919061266c565b905060005b6008805490508160ff16101561085357600060088260ff168154811061076b5761076a612918565b5b9060005260206000200160009054906101000a900473ffffffffffffffffffffffffffffffffffffffff1673ffffffffffffffffffffffffffffffffffffffff16836040516107b9906121ec565b60006040518083038185875af1925050503d80600081146107f6576040519150601f19603f3d011682016040523d82523d6000602084013e6107fb565b606091505b505090508061083f576040517f08c379a000000000000000000000000000000000000000000000000000000000815260040161083690612384565b60405180910390fd5b50808061084b9061284b565b915050610742565b50600067ffffffffffffffff81111561086f5761086e612947565b5b60405190808252806020026020018201604052801561089d5781602001602082028036833780820191505090505b50600890805190602001906108b3929190611aca565b506001600760016101000a81548160ff0219169083151502179055505050565b6108db611342565b6000600560009054906101000a900473ffffffffffffffffffffffffffffffffffffffff1673ffffffffffffffffffffffffffffffffffffffff1647604051610923906121ec565b60006040518083038185875af1925050503d8060008114610960576040519150601f19603f3d011682016040523d82523d6000602084013e610965565b606091505b50509050806109a9576040517f08c379a00000000000000000000000000000000000000000000000000000000081526004016109a0906124a4565b60405180910390fd5b50565b6109b4611342565b80600760016101000a81548160ff02191690831515021790555050565b600a5481565b6109df611342565b6000600560009054906101000a900473ffffffffffffffffffffffffffffffffffffffff1673ffffffffffffffffffffffffffffffffffffffff1647604051610a27906121ec565b60006040518083038185875af1925050503d8060008114610a64576040519150601f19603f3d011682016040523d82523d6000602084013e610a69565b606091505b5050905080610aad576040517f08c379a0000000000000000000000000000000000000000000000000000000008152600401610aa4906124a4565b60405180910390fd5b6001600960008282829054906101000a900461ffff16610acd91906126f7565b92506101000a81548161ffff021916908361ffff160217905550600880549050600654610afa919061269d565b600a6000828254610b0b919061272b565b92505081905550600067ffffffffffffffff811115610b2d57610b2c612947565b5b604051908082528060200260200182016040528015610b5b5781602001602082028036833780820191505090505b5060089080519060200190610b71929190611aca565b506001600760016101000a81548160ff02191690831515021790555050565b60088181548110610ba057600080fd5b906000526020600020016000915054906101000a900473ffffffffffffffffffffffffffffffffffffffff1681565b6000600354905090565b610be1611342565b60198160ff161115610c28576040517f08c379a0000000000000000000000000000000000000000000000000000000008152600401610c1f90612444565b60405180910390fd5b80600760006101000a81548160ff021916908360ff16021790555050565b610c4e611342565b8060048190555050565b600260009054906101000a900473ffffffffffffffffffffffffffffffffffffffff1673ffffffffffffffffffffffffffffffffffffffff163373ffffffffffffffffffffffffffffffffffffffff1614610ce8576040517f08c379a0000000000000000000000000000000000000000000000000000000008152600401610cdf90612364565b60405180910390fd5b6000600160009054906101000a900473ffffffffffffffffffffffffffffffffffffffff16905033600160006101000a81548173ffffffffffffffffffffffffffffffffffffffff021916908373ffffffffffffffffffffffffffffffffffffffff1602179055506000600260006101000a81548173ffffffffffffffffffffffffffffffffffffffff021916908373ffffffffffffffffffffffffffffffffffffffff1602179055503373ffffffffffffffffffffffffffffffffffffffff168173ffffffffffffffffffffffffffffffffffffffff167f8be0079c531659141344cd1fd0a4f28419497f9722a3daafe3b4186f6b6457e060405160405180910390a350565b610df7611342565b80600560006101000a81548173ffffffffffffffffffffffffffffffffffffffff021916908373ffffffffffffffffffffffffffffffffffffffff16021790555050565b6000600160009054906101000a900473ffffffffffffffffffffffffffffffffffffffff16905090565b6000600b60009054906101000a900473ffffffffffffffffffffffffffffffffffffffff16905090565b7f000000000000000000000000000000000000000000000000000000000000000073ffffffffffffffffffffffffffffffffffffffff163373ffffffffffffffffffffffffffffffffffffffff1614610f1d576040517f08c379a0000000000000000000000000000000000000000000000000000000008152600401610f1490612464565b60405180910390fd5b610f2782826113d4565b5050565b610f33611342565b7f000000000000000000000000000000000000000000000000000000000000000073ffffffffffffffffffffffffffffffffffffffff1663a9059cbb83836040518363ffffffff1660e01b8152600401610f8e929190612237565b602060405180830381600087803b158015610fa857600080fd5b505af1158015610fbc573d6000803e3d6000fd5b505050506040513d601f19601f82011682018060405250810190610fe09190611ce0565b61101f576040517f08c379a0000000000000000000000000000000000000000000000000000000008152600401611016906123e4565b60405180910390fd5b5050565b61102b611342565b8060038190555050565b6000600880549050905090565b600760009054906101000a900460ff1681565b600960009054906101000a900461ffff1681565b6000600454905090565b600760019054906101000a900460ff1681565b60065434146110ca576040517f08c379a00000000000000000000000000000000000000000000000000000000081526004016110c190612484565b60405180910390fd5b60011515600760019054906101000a900460ff16151514611120576040517f08c379a000000000000000000000000000000000000000000000000000000000815260040161111790612424565b60405180910390fd5b6008339080600181540180825580915050600190039060005260206000200160009091909190916101000a81548173ffffffffffffffffffffffffffffffffffffffff021916908373ffffffffffffffffffffffffffffffffffffffff16021790555034600a60008282546111959190612616565b925050819055503373ffffffffffffffffffffffffffffffffffffffff167f3558ba148949a1d7cab62c595a91c95580926a967444d1c1c63273d03125279b60405160405180910390a2600760009054906101000a900460ff1660ff1660088054905014156112e6576008600560009054906101000a900473ffffffffffffffffffffffffffffffffffffffff169080600181540180825580915050600190039060005260206000200160009091909190916101000a81548173ffffffffffffffffffffffffffffffffffffffff021916908373ffffffffffffffffffffffffffffffffffffffff1602179055506000600760016101000a81548160ff0219169083151502179055506001600960008282829054906101000a900461ffff166112be91906125de565b92506101000a81548161ffff021916908361ffff1602179055506112e0611631565b5061132c565b600760009054906101000a900460ff1660ff166008805490507f1cacae31d041f2b6ba9a6bedf9859bf1d95c27845a7bb17d82a5990f8fff915660405160405180910390a35b565b611336611342565b61133f816117cd565b50565b600160009054906101000a900473ffffffffffffffffffffffffffffffffffffffff1673ffffffffffffffffffffffffffffffffffffffff163373ffffffffffffffffffffffffffffffffffffffff16146113d2576040517f08c379a00000000000000000000000000000000000000000000000000000000081526004016113c9906123c4565b60405180910390fd5b565b6000600880549050826113e79190612889565b9050600881815481106113fd576113fc612918565b5b9060005260206000200160009054906101000a900473ffffffffffffffffffffffffffffffffffffffff16600b60006101000a81548173ffffffffffffffffffffffffffffffffffffffff021916908373ffffffffffffffffffffffffffffffffffffffff160217905550600067ffffffffffffffff81111561148357611482612947565b5b6040519080825280602002602001820160405280156114b15781602001602082028036833780820191505090505b50600890805190602001906114c7929190611aca565b506000600b60009054906101000a900473ffffffffffffffffffffffffffffffffffffffff1673ffffffffffffffffffffffffffffffffffffffff1647604051611510906121ec565b60006040518083038185875af1925050503d806000811461154d576040519150601f19603f3d011682016040523d82523d6000602084013e611552565b606091505b5050905080611596576040517f08c379a000000000000000000000000000000000000000000000000000000000815260040161158d906124a4565b60405180910390fd5b600b60009054906101000a900473ffffffffffffffffffffffffffffffffffffffff1673ffffffffffffffffffffffffffffffffffffffff16600960009054906101000a900461ffff1661ffff167ffe7731d2444f67cda983faa8997f0cc52e02d05c9649a68ce5ef7fee8b98e73960405160405180910390a36001600760016101000a81548160ff02191690831515021790555050505050565b60006004547f000000000000000000000000000000000000000000000000000000000000000073ffffffffffffffffffffffffffffffffffffffff166370a08231306040518263ffffffff1660e01b815260040161168f9190612201565b60206040518083038186803b1580156116a757600080fd5b505afa1580156116bb573d6000803e3d6000fd5b505050506040513d601f19601f820116820180604052508101906116df9190611da7565b1015611720576040517f08c379a0000000000000000000000000000000000000000000000000000000008152600401611717906123a4565b60405180910390fd5b60001515600760019054906101000a900460ff16151514611776576040517f08c379a000000000000000000000000000000000000000000000000000000000815260040161176d90612404565b60405180910390fd5b6117846003546004546118fc565b905080600860405161179691906121a9565b60405180910390207fbda145a628675f81b762c7a2ca8ded184044d50e287ce4b1a5065bde7e08086c60405160405180910390a390565b3373ffffffffffffffffffffffffffffffffffffffff168173ffffffffffffffffffffffffffffffffffffffff16141561183c576040517f08c379a0000000000000000000000000000000000000000000000000000000008152600401611833906124c4565b60405180910390fd5b80600260006101000a81548173ffffffffffffffffffffffffffffffffffffffff021916908373ffffffffffffffffffffffffffffffffffffffff1602179055508073ffffffffffffffffffffffffffffffffffffffff16600160009054906101000a900473ffffffffffffffffffffffffffffffffffffffff1673ffffffffffffffffffffffffffffffffffffffff167fed8889f560326eb138920d842192f0eb3dd22b4f139c87a2c57538e05bae127860405160405180910390a350565b60007f000000000000000000000000000000000000000000000000000000000000000073ffffffffffffffffffffffffffffffffffffffff16634000aea07f0000000000000000000000000000000000000000000000000000000000000000848660006040516020016119709291906122f6565b6040516020818303038152906040526040518463ffffffff1660e01b815260040161199d93929190612260565b602060405180830381600087803b1580156119b757600080fd5b505af11580156119cb573d6000803e3d6000fd5b505050506040513d601f19601f820116820180604052508101906119ef9190611ce0565b506000611a118460003060008089815260200190815260200160002054611a5b565b9050600160008086815260200190815260200160002054611a329190612616565b60008086815260200190815260200160002081905550611a528482611a97565b91505092915050565b600084848484604051602001611a74949392919061231f565b6040516020818303038152906040528051906020012060001c9050949350505050565b60008282604051602001611aac9291906121c0565b60405160208183030381529060405280519060200120905092915050565b828054828255906000526020600020908101928215611b43579160200282015b82811115611b425782518260006101000a81548173ffffffffffffffffffffffffffffffffffffffff021916908373ffffffffffffffffffffffffffffffffffffffff16021790555091602001919060010190611aea565b5b509050611b509190611b54565b5090565b5b80821115611b6d576000816000905550600101611b55565b5090565b600081359050611b8081612b9b565b92915050565b600081359050611b9581612bb2565b92915050565b600081359050611baa81612bc9565b92915050565b600081519050611bbf81612bc9565b92915050565b600081359050611bd481612be0565b92915050565b600081359050611be981612bf7565b92915050565b600081519050611bfe81612bf7565b92915050565b600081359050611c1381612c0e565b92915050565b600060208284031215611c2f57611c2e612989565b5b6000611c3d84828501611b71565b91505092915050565b600060208284031215611c5c57611c5b612989565b5b6000611c6a84828501611b86565b91505092915050565b60008060408385031215611c8a57611c89612989565b5b6000611c9885828601611b71565b9250506020611ca985828601611bda565b9150509250929050565b600060208284031215611cc957611cc8612989565b5b6000611cd784828501611b9b565b91505092915050565b600060208284031215611cf657611cf5612989565b5b6000611d0484828501611bb0565b91505092915050565b600060208284031215611d2357611d22612989565b5b6000611d3184828501611bc5565b91505092915050565b60008060408385031215611d5157611d50612989565b5b6000611d5f85828601611bc5565b9250506020611d7085828601611bda565b9150509250929050565b600060208284031215611d9057611d8f612989565b5b6000611d9e84828501611bda565b91505092915050565b600060208284031215611dbd57611dbc612989565b5b6000611dcb84828501611bef565b91505092915050565b600060208284031215611dea57611de9612989565b5b6000611df884828501611c04565b91505092915050565b6000611e0d8383611e31565b60208301905092915050565b6000611e258383611e4f565b60208301905092915050565b611e3a81612791565b82525050565b611e4981612791565b82525050565b611e5881612791565b82525050565b611e678161277f565b82525050565b6000611e788261255a565b611e828185612595565b9350611e8d83612535565b8060005b83811015611ebe578151611ea58882611e01565b9750611eb08361257b565b925050600181019050611e91565b5085935050505092915050565b6000611ed682612565565b611ee081856125a6565b9350611eeb83612545565b8060005b83811015611f2357611f0082612976565b611f0a8882611e19565b9750611f1583612588565b925050600181019050611eef565b5085935050505092915050565b611f39816127a3565b82525050565b611f48816127af565b82525050565b611f5f611f5a826127af565b612875565b82525050565b6000611f7082612570565b611f7a81856125b1565b9350611f8a8185602086016127fe565b611f938161298e565b840191505092915050565b6000611fab6016836125cd565b9150611fb6826129ac565b602082019050919050565b6000611fce6010836125cd565b9150611fd9826129d5565b602082019050919050565b6000611ff1600b836125cd565b9150611ffc826129fe565b602082019050919050565b60006120146016836125cd565b915061201f82612a27565b602082019050919050565b6000612037600f836125cd565b915061204282612a50565b602082019050919050565b600061205a6017836125cd565b915061206582612a79565b602082019050919050565b600061207d6013836125cd565b915061208882612aa2565b602082019050919050565b60006120a06011836125cd565b91506120ab82612acb565b602082019050919050565b60006120c3601f836125cd565b91506120ce82612af4565b602082019050919050565b60006120e66016836125cd565b91506120f182612b1d565b602082019050919050565b60006121096000836125c2565b915061211482612b46565b600082019050919050565b600061212c6010836125cd565b915061213782612b49565b602082019050919050565b600061214f6017836125cd565b915061215a82612b72565b602082019050919050565b61216e816127b9565b82525050565b61217d816127e7565b82525050565b61219461218f826127e7565b61287f565b82525050565b6121a3816127f1565b82525050565b60006121b58284611ecb565b915081905092915050565b60006121cc8285611f4e565b6020820191506121dc8284612183565b6020820191508190509392505050565b60006121f7826120fc565b9150819050919050565b60006020820190506122166000830184611e5e565b92915050565b60006020820190506122316000830184611e40565b92915050565b600060408201905061224c6000830185611e5e565b6122596020830184612174565b9392505050565b60006060820190506122756000830186611e5e565b6122826020830185612174565b81810360408301526122948184611f65565b9050949350505050565b600060208201905081810360008301526122b88184611e6d565b905092915050565b60006020820190506122d56000830184611f30565b92915050565b60006020820190506122f06000830184611f3f565b92915050565b600060408201905061230b6000830185611f3f565b6123186020830184612174565b9392505050565b60006080820190506123346000830187611f3f565b6123416020830186612174565b61234e6040830185611e5e565b61235b6060830184612174565b95945050505050565b6000602082019050818103600083015261237d81611f9e565b9050919050565b6000602082019050818103600083015261239d81611fc1565b9050919050565b600060208201905081810360008301526123bd81611fe4565b9050919050565b600060208201905081810360008301526123dd81612007565b9050919050565b600060208201905081810360008301526123fd8161202a565b9050919050565b6000602082019050818103600083015261241d8161204d565b9050919050565b6000602082019050818103600083015261243d81612070565b9050919050565b6000602082019050818103600083015261245d81612093565b9050919050565b6000602082019050818103600083015261247d816120b6565b9050919050565b6000602082019050818103600083015261249d816120d9565b9050919050565b600060208201905081810360008301526124bd8161211f565b9050919050565b600060208201905081810360008301526124dd81612142565b9050919050565b60006020820190506124f96000830184612165565b92915050565b60006020820190506125146000830184612174565b92915050565b600060208201905061252f600083018461219a565b92915050565b6000819050602082019050919050565b60008190508160005260206000209050919050565b600081519050919050565b600081549050919050565b600081519050919050565b6000602082019050919050565b6000600182019050919050565b600082825260208201905092915050565b600081905092915050565b600082825260208201905092915050565b600081905092915050565b600082825260208201905092915050565b60006125e9826127b9565b91506125f4836127b9565b92508261ffff0382111561260b5761260a6128ba565b5b828201905092915050565b6000612621826127e7565b915061262c836127e7565b9250827fffffffffffffffffffffffffffffffffffffffffffffffffffffffffffffffff03821115612661576126606128ba565b5b828201905092915050565b6000612677826127e7565b9150612682836127e7565b925082612692576126916128e9565b5b828204905092915050565b60006126a8826127e7565b91506126b3836127e7565b9250817fffffffffffffffffffffffffffffffffffffffffffffffffffffffffffffffff04831182151516156126ec576126eb6128ba565b5b828202905092915050565b6000612702826127b9565b915061270d836127b9565b9250828210156127205761271f6128ba565b5b828203905092915050565b6000612736826127e7565b9150612741836127e7565b925082821015612754576127536128ba565b5b828203905092915050565b600073ffffffffffffffffffffffffffffffffffffffff82169050919050565b600061278a826127c7565b9050919050565b600061279c826127c7565b9050919050565b60008115159050919050565b6000819050919050565b600061ffff82169050919050565b600073ffffffffffffffffffffffffffffffffffffffff82169050919050565b6000819050919050565b600060ff82169050919050565b60005b8381101561281c578082015181840152602081019050612801565b8381111561282b576000848401525b50505050565b600061284461283f8361299f565b61275f565b9050919050565b6000612856826127f1565b915060ff82141561286a576128696128ba565b5b600182019050919050565b6000819050919050565b6000819050919050565b6000612894826127e7565b915061289f836127e7565b9250826128af576128ae6128e9565b5b828206905092915050565b7f4e487b7100000000000000000000000000000000000000000000000000000000600052601160045260246000fd5b7f4e487b7100000000000000000000000000000000000000000000000000000000600052601260045260246000fd5b7f4e487b7100000000000000000000000000000000000000000000000000000000600052603260045260246000fd5b7f4e487b7100000000000000000000000000000000000000000000000000000000600052604160045260246000fd5b60006129828254612831565b9050919050565b600080fd5b6000601f19601f8301169050919050565b60008160001c9050919050565b7f4d7573742062652070726f706f736564206f776e657200000000000000000000600082015250565b7f5472616e73666572204661696c65642e00000000000000000000000000000000600082015250565b7f4f7574206f66204c494e4b000000000000000000000000000000000000000000600082015250565b7f4f6e6c792063616c6c61626c65206279206f776e657200000000000000000000600082015250565b7f4e6f7420656e6f756768204c494e4b0000000000000000000000000000000000600082015250565b7f4177616974696e672063757272656e742077696e6e6572000000000000000000600082015250565b7f5761697420666f72206e65787420726f756e6400000000000000000000000000600082015250565b7f4d6178206d757374206265203c3d203235000000000000000000000000000000600082015250565b7f4f6e6c7920565246436f6f7264696e61746f722063616e2066756c66696c6c00600082015250565b7f496e636f7272656374207469636b657420707269636500000000000000000000600082015250565b50565b7f5472616e73666572206661696c65642e00000000000000000000000000000000600082015250565b7f43616e6e6f74207472616e7366657220746f2073656c66000000000000000000600082015250565b612ba48161277f565b8114612baf57600080fd5b50565b612bbb81612791565b8114612bc657600080fd5b50565b612bd2816127a3565b8114612bdd57600080fd5b50565b612be9816127af565b8114612bf457600080fd5b50565b612c00816127e7565b8114612c0b57600080fd5b50565b612c17816127f1565b8114612c2257600080fd5b5056fea26469706673582212207fe60e1d97ac20e417adb47c1eb218e58cb3050ee598727fae6fc7ff8b98090964736f6c63430008070033",
  "linkReferences": {},
  "deployedLinkReferences": {}
}