{
  "_format": "hh-sol-artifact-1",
  "contractName": "MyEpicNFT",
  "sourceName": "contracts/MyEpicNFT.sol",
  "abi": [
    {
      "inputs": [],
      "stateMutability": "nonpayable",
      "type": "constructor"
    },
    {
      "anonymous": false,
      "inputs": [
        {
          "indexed": true,
          "internalType": "address",
          "name": "owner",
          "type": "address"
        },
        {
          "indexed": true,
          "internalType": "address",
          "name": "approved",
          "type": "address"
        },
        {
          "indexed": true,
          "internalType": "uint256",
          "name": "tokenId",
          "type": "uint256"
        }
      ],
      "name": "Approval",
      "type": "event"
    },
    {
      "anonymous": false,
      "inputs": [
        {
          "indexed": true,
          "internalType": "address",
          "name": "owner",
          "type": "address"
        },
        {
          "indexed": true,
          "internalType": "address",
          "name": "operator",
          "type": "address"
        },
        {
          "indexed": false,
          "internalType": "bool",
          "name": "approved",
          "type": "bool"
        }
      ],
      "name": "ApprovalForAll",
      "type": "event"
    },
    {
      "anonymous": false,
      "inputs": [
        {
          "indexed": false,
          "internalType": "address",
          "name": "sender",
          "type": "address"
        },
        {
          "indexed": false,
          "internalType": "uint256",
          "name": "tokenId",
          "type": "uint256"
        }
      ],
      "name": "NewEpicNFTMinted",
      "type": "event"
    },
    {
      "anonymous": false,
      "inputs": [
        {
          "indexed": true,
          "internalType": "address",
          "name": "from",
          "type": "address"
        },
        {
          "indexed": true,
          "internalType": "address",
          "name": "to",
          "type": "address"
        },
        {
          "indexed": true,
          "internalType": "uint256",
          "name": "tokenId",
          "type": "uint256"
        }
      ],
      "name": "Transfer",
      "type": "event"
    },
    {
      "inputs": [
        {
          "internalType": "address",
          "name": "to",
          "type": "address"
        },
        {
          "internalType": "uint256",
          "name": "tokenId",
          "type": "uint256"
        }
      ],
      "name": "approve",
      "outputs": [],
      "stateMutability": "nonpayable",
      "type": "function"
    },
    {
      "inputs": [
        {
          "internalType": "address",
          "name": "owner",
          "type": "address"
        }
      ],
      "name": "balanceOf",
      "outputs": [
        {
          "internalType": "uint256",
          "name": "",
          "type": "uint256"
        }
      ],
      "stateMutability": "view",
      "type": "function"
    },
    {
      "inputs": [
        {
          "internalType": "uint256",
          "name": "tokenId",
          "type": "uint256"
        }
      ],
      "name": "getApproved",
      "outputs": [
        {
          "internalType": "address",
          "name": "",
          "type": "address"
        }
      ],
      "stateMutability": "view",
      "type": "function"
    },
    {
      "inputs": [],
      "name": "getTokenId",
      "outputs": [
        {
          "internalType": "uint256",
          "name": "",
          "type": "uint256"
        }
      ],
      "stateMutability": "view",
      "type": "function"
    },
    {
      "inputs": [
        {
          "internalType": "address",
          "name": "owner",
          "type": "address"
        },
        {
          "internalType": "address",
          "name": "operator",
          "type": "address"
        }
      ],
      "name": "isApprovedForAll",
      "outputs": [
        {
          "internalType": "bool",
          "name": "",
          "type": "bool"
        }
      ],
      "stateMutability": "view",
      "type": "function"
    },
    {
      "inputs": [],
      "name": "makeAnEpicNFT",
      "outputs": [],
      "stateMutability": "nonpayable",
      "type": "function"
    },
    {
      "inputs": [],
      "name": "name",
      "outputs": [
        {
          "internalType": "string",
          "name": "",
          "type": "string"
        }
      ],
      "stateMutability": "view",
      "type": "function"
    },
    {
      "inputs": [
        {
          "internalType": "uint256",
          "name": "tokenId",
          "type": "uint256"
        }
      ],
      "name": "ownerOf",
      "outputs": [
        {
          "internalType": "address",
          "name": "",
          "type": "address"
        }
      ],
      "stateMutability": "view",
      "type": "function"
    },
    {
      "inputs": [
        {
          "internalType": "uint256",
          "name": "tokenId",
          "type": "uint256"
        }
      ],
      "name": "pickRandomColor",
      "outputs": [
        {
          "internalType": "string",
          "name": "",
          "type": "string"
        }
      ],
      "stateMutability": "view",
      "type": "function"
    },
    {
      "inputs": [
        {
          "internalType": "uint256",
          "name": "tokenId",
          "type": "uint256"
        }
      ],
      "name": "pickRandomFirstWord",
      "outputs": [
        {
          "internalType": "string",
          "name": "",
          "type": "string"
        }
      ],
      "stateMutability": "view",
      "type": "function"
    },
    {
      "inputs": [
        {
          "internalType": "uint256",
          "name": "tokenId",
          "type": "uint256"
        }
      ],
      "name": "pickRandomSecondWord",
      "outputs": [
        {
          "internalType": "string",
          "name": "",
          "type": "string"
        }
      ],
      "stateMutability": "view",
      "type": "function"
    },
    {
      "inputs": [
        {
          "internalType": "uint256",
          "name": "tokenId",
          "type": "uint256"
        }
      ],
      "name": "pickRandomThirdWord",
      "outputs": [
        {
          "internalType": "string",
          "name": "",
          "type": "string"
        }
      ],
      "stateMutability": "view",
      "type": "function"
    },
    {
      "inputs": [
        {
          "internalType": "address",
          "name": "from",
          "type": "address"
        },
        {
          "internalType": "address",
          "name": "to",
          "type": "address"
        },
        {
          "internalType": "uint256",
          "name": "tokenId",
          "type": "uint256"
        }
      ],
      "name": "safeTransferFrom",
      "outputs": [],
      "stateMutability": "nonpayable",
      "type": "function"
    },
    {
      "inputs": [
        {
          "internalType": "address",
          "name": "from",
          "type": "address"
        },
        {
          "internalType": "address",
          "name": "to",
          "type": "address"
        },
        {
          "internalType": "uint256",
          "name": "tokenId",
          "type": "uint256"
        },
        {
          "internalType": "bytes",
          "name": "_data",
          "type": "bytes"
        }
      ],
      "name": "safeTransferFrom",
      "outputs": [],
      "stateMutability": "nonpayable",
      "type": "function"
    },
    {
      "inputs": [
        {
          "internalType": "address",
          "name": "operator",
          "type": "address"
        },
        {
          "internalType": "bool",
          "name": "approved",
          "type": "bool"
        }
      ],
      "name": "setApprovalForAll",
      "outputs": [],
      "stateMutability": "nonpayable",
      "type": "function"
    },
    {
      "inputs": [
        {
          "internalType": "bytes4",
          "name": "interfaceId",
          "type": "bytes4"
        }
      ],
      "name": "supportsInterface",
      "outputs": [
        {
          "internalType": "bool",
          "name": "",
          "type": "bool"
        }
      ],
      "stateMutability": "view",
      "type": "function"
    },
    {
      "inputs": [],
      "name": "symbol",
      "outputs": [
        {
          "internalType": "string",
          "name": "",
          "type": "string"
        }
      ],
      "stateMutability": "view",
      "type": "function"
    },
    {
      "inputs": [
        {
          "internalType": "uint256",
          "name": "tokenId",
          "type": "uint256"
        }
      ],
      "name": "tokenURI",
      "outputs": [
        {
          "internalType": "string",
          "name": "",
          "type": "string"
        }
      ],
      "stateMutability": "view",
      "type": "function"
    },
    {
      "inputs": [
        {
          "internalType": "address",
          "name": "from",
          "type": "address"
        },
        {
          "internalType": "address",
          "name": "to",
          "type": "address"
        },
        {
          "internalType": "uint256",
          "name": "tokenId",
          "type": "uint256"
        }
      ],
      "name": "transferFrom",
      "outputs": [],
      "stateMutability": "nonpayable",
      "type": "function"
    }
  ],
  "bytecode": "0x608060405260405180610100016040528060d381526020016200462560d3913960089080519060200190620000369291906200082c565b50604051806080016040528060568152602001620046f86056913960099080519060200190620000689291906200082c565b506040518060c001604052806040518060400160405280600381526020017f47796d000000000000000000000000000000000000000000000000000000000081525081526020016040518060400160405280600781526020017f4b69746368656e0000000000000000000000000000000000000000000000000081525081526020016040518060400160405280600881526020017f42617468726f6f6d00000000000000000000000000000000000000000000000081525081526020016040518060400160405280600b81526020017f4c61756e647279726f6f6d00000000000000000000000000000000000000000081525081526020016040518060400160405280600781526020017f48616c6c7761790000000000000000000000000000000000000000000000000081525081526020016040518060400160405280600781526020017f426564726f6f6d00000000000000000000000000000000000000000000000000815250815250600a906006620001e6929190620008bd565b506040518060c001604052806040518060400160405280600681526020017f436865657365000000000000000000000000000000000000000000000000000081525081526020016040518060400160405280600581526020017f4170706c6500000000000000000000000000000000000000000000000000000081525081526020016040518060400160405280600581526020017f506173746100000000000000000000000000000000000000000000000000000081525081526020016040518060400160405280600381526020017f42756e000000000000000000000000000000000000000000000000000000000081525081526020016040518060400160405280600781526020017f436869636b656e0000000000000000000000000000000000000000000000000081525081526020016040518060400160405280600481526020017f4265656600000000000000000000000000000000000000000000000000000000815250815250600b90600662000364929190620008bd565b506040518060c001604052806040518060400160405280600381526020017f466174000000000000000000000000000000000000000000000000000000000081525081526020016040518060400160405280600581526020017f536d616c6c00000000000000000000000000000000000000000000000000000081525081526020016040518060400160405280600481526020017f54616c6c0000000000000000000000000000000000000000000000000000000081525081526020016040518060400160405280600381526020017f426967000000000000000000000000000000000000000000000000000000000081525081526020016040518060400160405280600581526020017f53686f727400000000000000000000000000000000000000000000000000000081525081526020016040518060400160405280600581526020017f46756e6e79000000000000000000000000000000000000000000000000000000815250815250600c906006620004e2929190620008bd565b506040518060c001604052806040518060400160405280600381526020017f726564000000000000000000000000000000000000000000000000000000000081525081526020016040518060400160405280600781526020017f233038433241380000000000000000000000000000000000000000000000000081525081526020016040518060400160405280600581526020017f626c61636b00000000000000000000000000000000000000000000000000000081525081526020016040518060400160405280600681526020017f79656c6c6f77000000000000000000000000000000000000000000000000000081525081526020016040518060400160405280600481526020017f626c75650000000000000000000000000000000000000000000000000000000081525081526020016040518060400160405280600581526020017f677265656e000000000000000000000000000000000000000000000000000000815250815250600d90600662000660929190620008bd565b503480156200066e57600080fd5b506040518060400160405280600981526020017f5371756172654e465400000000000000000000000000000000000000000000008152506040518060400160405280600681526020017f53515541524500000000000000000000000000000000000000000000000000008152508160009080519060200190620006f39291906200082c565b5080600190805190602001906200070c9291906200082c565b5050506200075a6040518060400160405280601e81526020017f54686973206973206d79204e465420636f6e74726163742e20576f61682100008152506200076060201b6200141c1760201c565b62000ade565b6200080081604051602401620007779190620009f2565b6040516020818303038152906040527f41304fac000000000000000000000000000000000000000000000000000000007bffffffffffffffffffffffffffffffffffffffffffffffffffffffff19166020820180517bffffffffffffffffffffffffffffffffffffffffffffffffffffffff83818316178352505050506200080360201b60201c565b50565b60008151905060006a636f6e736f6c652e6c6f679050602083016000808483855afa5050505050565b8280546200083a9062000a68565b90600052602060002090601f0160209004810192826200085e5760008555620008aa565b82601f106200087957805160ff1916838001178555620008aa565b82800160010185558215620008aa579182015b82811115620008a95782518255916020019190600101906200088c565b5b509050620008b9919062000924565b5090565b82805482825590600052602060002090810192821562000911579160200282015b8281111562000910578251829080519060200190620008ff9291906200082c565b5091602001919060010190620008de565b5b50905062000920919062000943565b5090565b5b808211156200093f57600081600090555060010162000925565b5090565b5b808211156200096757600081816200095d91906200096b565b5060010162000944565b5090565b508054620009799062000a68565b6000825580601f106200098d5750620009ae565b601f016020900490600052602060002090810190620009ad919062000924565b5b50565b6000620009be8262000a16565b620009ca818562000a21565b9350620009dc81856020860162000a32565b620009e78162000acd565b840191505092915050565b6000602082019050818103600083015262000a0e8184620009b1565b905092915050565b600081519050919050565b600082825260208201905092915050565b60005b8381101562000a5257808201518184015260208101905062000a35565b8381111562000a62576000848401525b50505050565b6000600282049050600182168062000a8157607f821691505b6020821081141562000a985762000a9762000a9e565b5b50919050565b7f4e487b7100000000000000000000000000000000000000000000000000000000600052602260045260246000fd5b6000601f19601f8301169050919050565b613b378062000aee6000396000f3fe608060405234801561001057600080fd5b50600436106101215760003560e01c80636352211e116100ad578063b88d4fde11610071578063b88d4fde14610340578063c575757a1461035c578063c87b56dd1461038c578063de9d132f146103bc578063e985e9c5146103c657610121565b80636352211e1461027657806370a08231146102a657806395d89b41146102d6578063a22cb465146102f4578063b187301f1461031057610121565b8063095ea7b3116100f4578063095ea7b3146101c257806323b872dd146101de5780632de38d68146101fa57806342842e0e1461022a578063514dc8c61461024657610121565b8063010a38f51461012657806301ffc9a71461014457806306fdde0314610174578063081812fc14610192575b600080fd5b61012e6103f6565b60405161013b9190613628565b60405180910390f35b61015e600480360381019061015991906126af565b610407565b60405161016b919061338d565b60405180910390f35b61017c6104e9565b60405161018991906133a8565b60405180910390f35b6101ac60048036038101906101a79190612701565b61057b565b6040516101b991906132fd565b60405180910390f35b6101dc60048036038101906101d79190612673565b610600565b005b6101f860048036038101906101f3919061256d565b610718565b005b610214600480360381019061020f9190612701565b610778565b60405161022191906133a8565b60405180910390f35b610244600480360381019061023f919061256d565b610896565b005b610260600480360381019061025b9190612701565b6108b6565b60405161026d91906133a8565b60405180910390f35b610290600480360381019061028b9190612701565b6109d4565b60405161029d91906132fd565b60405180910390f35b6102c060048036038101906102bb9190612508565b610a86565b6040516102cd9190613628565b60405180910390f35b6102de610b3e565b6040516102eb91906133a8565b60405180910390f35b61030e60048036038101906103099190612637565b610bd0565b005b61032a60048036038101906103259190612701565b610d51565b60405161033791906133a8565b60405180910390f35b61035a600480360381019061035591906125bc565b610e6f565b005b61037660048036038101906103719190612701565b610ed1565b60405161038391906133a8565b60405180910390f35b6103a660048036038101906103a19190612701565b610fef565b6040516103b391906133a8565b60405180910390f35b6103c4611141565b005b6103e060048036038101906103db9190612531565b611388565b6040516103ed919061338d565b60405180910390f35b600061040260076114b5565b905090565b60007f80ac58cd000000000000000000000000000000000000000000000000000000007bffffffffffffffffffffffffffffffffffffffffffffffffffffffff1916827bffffffffffffffffffffffffffffffffffffffffffffffffffffffff191614806104d257507f5b5e139f000000000000000000000000000000000000000000000000000000007bffffffffffffffffffffffffffffffffffffffffffffffffffffffff1916827bffffffffffffffffffffffffffffffffffffffffffffffffffffffff1916145b806104e257506104e1826114c3565b5b9050919050565b6060600080546104f8906138c7565b80601f0160208091040260200160405190810160405280929190818152602001828054610524906138c7565b80156105715780601f1061054657610100808354040283529160200191610571565b820191906000526020600020905b81548152906001019060200180831161055457829003601f168201915b5050505050905090565b60006105868261152d565b6105c5576040517f08c379a00000000000000000000000000000000000000000000000000000000081526004016105bc90613568565b60405180910390fd5b6004600083815260200190815260200160002060009054906101000a900473ffffffffffffffffffffffffffffffffffffffff169050919050565b600061060b826109d4565b90508073ffffffffffffffffffffffffffffffffffffffff168373ffffffffffffffffffffffffffffffffffffffff16141561067c576040517f08c379a0000000000000000000000000000000000000000000000000000000008152600401610673906135c8565b60405180910390fd5b8073ffffffffffffffffffffffffffffffffffffffff1661069b611599565b73ffffffffffffffffffffffffffffffffffffffff1614806106ca57506106c9816106c4611599565b611388565b5b610709576040517f08c379a0000000000000000000000000000000000000000000000000000000008152600401610700906134a8565b60405180910390fd5b61071383836115a1565b505050565b610729610723611599565b8261165a565b610768576040517f08c379a000000000000000000000000000000000000000000000000000000000815260040161075f90613608565b60405180910390fd5b610773838383611738565b505050565b606060006107ac61078884611994565b6040516020016107989190613297565b604051602081830303815290604052611b41565b9050600a80549050816107bf9190613942565b9050600a81815481106107fb577f4e487b7100000000000000000000000000000000000000000000000000000000600052603260045260246000fd5b906000526020600020018054610810906138c7565b80601f016020809104026020016040519081016040528092919081815260200182805461083c906138c7565b80156108895780601f1061085e57610100808354040283529160200191610889565b820191906000526020600020905b81548152906001019060200180831161086c57829003601f168201915b5050505050915050919050565b6108b183838360405180602001604052806000815250610e6f565b505050565b606060006108ea6108c684611994565b6040516020016108d691906132db565b604051602081830303815290604052611b41565b9050600d80549050816108fd9190613942565b9050600d8181548110610939577f4e487b7100000000000000000000000000000000000000000000000000000000600052603260045260246000fd5b90600052602060002001805461094e906138c7565b80601f016020809104026020016040519081016040528092919081815260200182805461097a906138c7565b80156109c75780601f1061099c576101008083540402835291602001916109c7565b820191906000526020600020905b8154815290600101906020018083116109aa57829003601f168201915b5050505050915050919050565b6000806002600084815260200190815260200160002060009054906101000a900473ffffffffffffffffffffffffffffffffffffffff169050600073ffffffffffffffffffffffffffffffffffffffff168173ffffffffffffffffffffffffffffffffffffffff161415610a7d576040517f08c379a0000000000000000000000000000000000000000000000000000000008152600401610a74906134e8565b60405180910390fd5b80915050919050565b60008073ffffffffffffffffffffffffffffffffffffffff168273ffffffffffffffffffffffffffffffffffffffff161415610af7576040517f08c379a0000000000000000000000000000000000000000000000000000000008152600401610aee906134c8565b60405180910390fd5b600360008373ffffffffffffffffffffffffffffffffffffffff1673ffffffffffffffffffffffffffffffffffffffff168152602001908152602001600020549050919050565b606060018054610b4d906138c7565b80601f0160208091040260200160405190810160405280929190818152602001828054610b79906138c7565b8015610bc65780601f10610b9b57610100808354040283529160200191610bc6565b820191906000526020600020905b815481529060010190602001808311610ba957829003601f168201915b5050505050905090565b610bd8611599565b73ffffffffffffffffffffffffffffffffffffffff168273ffffffffffffffffffffffffffffffffffffffff161415610c46576040517f08c379a0000000000000000000000000000000000000000000000000000000008152600401610c3d90613468565b60405180910390fd5b8060056000610c53611599565b73ffffffffffffffffffffffffffffffffffffffff1673ffffffffffffffffffffffffffffffffffffffff16815260200190815260200160002060008473ffffffffffffffffffffffffffffffffffffffff1673ffffffffffffffffffffffffffffffffffffffff16815260200190815260200160002060006101000a81548160ff0219169083151502179055508173ffffffffffffffffffffffffffffffffffffffff16610d00611599565b73ffffffffffffffffffffffffffffffffffffffff167f17307eab39ab6107e8899845ad3d59bd9653f200f220920489ca2b5937696c3183604051610d45919061338d565b60405180910390a35050565b60606000610d85610d6184611994565b604051602001610d719190613230565b604051602081830303815290604052611b41565b9050600b8054905081610d989190613942565b9050600b8181548110610dd4577f4e487b7100000000000000000000000000000000000000000000000000000000600052603260045260246000fd5b906000526020600020018054610de9906138c7565b80601f0160208091040260200160405190810160405280929190818152602001828054610e15906138c7565b8015610e625780601f10610e3757610100808354040283529160200191610e62565b820191906000526020600020905b815481529060010190602001808311610e4557829003601f168201915b5050505050915050919050565b610e80610e7a611599565b8361165a565b610ebf576040517f08c379a0000000000000000000000000000000000000000000000000000000008152600401610eb690613608565b60405180910390fd5b610ecb84848484611b74565b50505050565b60606000610f05610ee184611994565b604051602001610ef1919061320e565b604051602081830303815290604052611b41565b9050600c8054905081610f189190613942565b9050600c8181548110610f54577f4e487b7100000000000000000000000000000000000000000000000000000000600052603260045260246000fd5b906000526020600020018054610f69906138c7565b80601f0160208091040260200160405190810160405280929190818152602001828054610f95906138c7565b8015610fe25780601f10610fb757610100808354040283529160200191610fe2565b820191906000526020600020905b815481529060010190602001808311610fc557829003601f168201915b5050505050915050919050565b6060610ffa8261152d565b611039576040517f08c379a000000000000000000000000000000000000000000000000000000000815260040161103090613548565b60405180910390fd5b6000600660008481526020019081526020016000208054611059906138c7565b80601f0160208091040260200160405190810160405280929190818152602001828054611085906138c7565b80156110d25780601f106110a7576101008083540402835291602001916110d2565b820191906000526020600020905b8154815290600101906020018083116110b557829003601f168201915b5050505050905060006110e3611bd0565b90506000815114156110f957819250505061113c565b60008251111561112e578082604051602001611116929190613170565b6040516020818303038152906040529250505061113c565b61113784611be7565b925050505b919050565b603261114d60076114b5565b111561118e576040517f08c379a0000000000000000000000000000000000000000000000000000000008152600401611185906135e8565b60405180910390fd5b600061119a60076114b5565b905060006111a782610778565b905060006111b483610d51565b905060006111c184610ed1565b905060008383836040516020016111da93929190613194565b604051602081830303815290604052905060006111f6866108b6565b9050600060088260098560405160200161121394939291906131c5565b604051602081830303815290604052905060006112588461123384611c8e565b604051602001611244929190613252565b604051602081830303815290604052611c8e565b905060008160405160200161126d91906132b9565b60405160208183030381529060405290506112bc6040518060400160405280601581526020017f0a2d2d2d2d2d2d2d2d2d2d2d2d2d2d2d2d2d2d2d2d000000000000000000000081525061141c565b6112c58161141c565b6113036040518060400160405280601581526020017f2d2d2d2d2d2d2d2d2d2d2d2d2d2d2d2d2d2d2d2d0a000000000000000000000081525061141c565b61130d338a611e4c565b6113178982611e6a565b6113216007611ede565b611344604051806060016040528060258152602001613a9d602591398a33611ef4565b7febb98688741ffa4c7589bf325de30cf7becb63de567842e1ccdb6cb949fdc82c338a604051611375929190613364565b60405180910390a1505050505050505050565b6000600560008473ffffffffffffffffffffffffffffffffffffffff1673ffffffffffffffffffffffffffffffffffffffff16815260200190815260200160002060008373ffffffffffffffffffffffffffffffffffffffff1673ffffffffffffffffffffffffffffffffffffffff16815260200190815260200160002060009054906101000a900460ff16905092915050565b6114b28160405160240161143091906133a8565b6040516020818303038152906040527f41304fac000000000000000000000000000000000000000000000000000000007bffffffffffffffffffffffffffffffffffffffffffffffffffffffff19166020820180517bffffffffffffffffffffffffffffffffffffffffffffffffffffffff8381831617835250505050611f93565b50565b600081600001549050919050565b60007f01ffc9a7000000000000000000000000000000000000000000000000000000007bffffffffffffffffffffffffffffffffffffffffffffffffffffffff1916827bffffffffffffffffffffffffffffffffffffffffffffffffffffffff1916149050919050565b60008073ffffffffffffffffffffffffffffffffffffffff166002600084815260200190815260200160002060009054906101000a900473ffffffffffffffffffffffffffffffffffffffff1673ffffffffffffffffffffffffffffffffffffffff1614159050919050565b600033905090565b816004600083815260200190815260200160002060006101000a81548173ffffffffffffffffffffffffffffffffffffffff021916908373ffffffffffffffffffffffffffffffffffffffff160217905550808273ffffffffffffffffffffffffffffffffffffffff16611614836109d4565b73ffffffffffffffffffffffffffffffffffffffff167f8c5be1e5ebec7d5bd14f71427d1e84f3dd0314c0f7b2291e5b200ac8c7c3b92560405160405180910390a45050565b60006116658261152d565b6116a4576040517f08c379a000000000000000000000000000000000000000000000000000000000815260040161169b90613488565b60405180910390fd5b60006116af836109d4565b90508073ffffffffffffffffffffffffffffffffffffffff168473ffffffffffffffffffffffffffffffffffffffff16148061171e57508373ffffffffffffffffffffffffffffffffffffffff166117068461057b565b73ffffffffffffffffffffffffffffffffffffffff16145b8061172f575061172e8185611388565b5b91505092915050565b8273ffffffffffffffffffffffffffffffffffffffff16611758826109d4565b73ffffffffffffffffffffffffffffffffffffffff16146117ae576040517f08c379a00000000000000000000000000000000000000000000000000000000081526004016117a590613588565b60405180910390fd5b600073ffffffffffffffffffffffffffffffffffffffff168273ffffffffffffffffffffffffffffffffffffffff16141561181e576040517f08c379a000000000000000000000000000000000000000000000000000000000815260040161181590613448565b60405180910390fd5b611829838383611fbc565b6118346000826115a1565b6001600360008573ffffffffffffffffffffffffffffffffffffffff1673ffffffffffffffffffffffffffffffffffffffff168152602001908152602001600020600082825461188491906137dd565b925050819055506001600360008473ffffffffffffffffffffffffffffffffffffffff1673ffffffffffffffffffffffffffffffffffffffff16815260200190815260200160002060008282546118db91906136fc565b92505081905550816002600083815260200190815260200160002060006101000a81548173ffffffffffffffffffffffffffffffffffffffff021916908373ffffffffffffffffffffffffffffffffffffffff160217905550808273ffffffffffffffffffffffffffffffffffffffff168473ffffffffffffffffffffffffffffffffffffffff167fddf252ad1be2c89b69c2b068fc378daa952ba7f163c4a11628f55a4df523b3ef60405160405180910390a4505050565b606060008214156119dc576040518060400160405280600181526020017f30000000000000000000000000000000000000000000000000000000000000008152509050611b3c565b600082905060005b60008214611a0e5780806119f7906138f9565b915050600a82611a079190613752565b91506119e4565b60008167ffffffffffffffff811115611a50577f4e487b7100000000000000000000000000000000000000000000000000000000600052604160045260246000fd5b6040519080825280601f01601f191660200182016040528015611a825781602001600182028036833780820191505090505b5090505b60008514611b3557600182611a9b91906137dd565b9150600a85611aaa9190613942565b6030611ab691906136fc565b60f81b818381518110611af2577f4e487b7100000000000000000000000000000000000000000000000000000000600052603260045260246000fd5b60200101907effffffffffffffffffffffffffffffffffffffffffffffffffffffffffffff1916908160001a905350600a85611b2e9190613752565b9450611a86565b8093505050505b919050565b600081604051602001611b549190613159565b6040516020818303038152906040528051906020012060001c9050919050565b611b7f848484611738565b611b8b84848484611fc1565b611bca576040517f08c379a0000000000000000000000000000000000000000000000000000000008152600401611bc190613408565b60405180910390fd5b50505050565b606060405180602001604052806000815250905090565b6060611bf28261152d565b611c31576040517f08c379a0000000000000000000000000000000000000000000000000000000008152600401611c28906135a8565b60405180910390fd5b6000611c3b611bd0565b90506000815111611c5b5760405180602001604052806000815250611c86565b80611c6584611994565b604051602001611c76929190613170565b6040516020818303038152906040525b915050919050565b60606000825190506000811415611cb75760405180602001604052806000815250915050611e47565b60006003600283611cc891906136fc565b611cd29190613752565b6004611cde9190613783565b90506000602082611cef91906136fc565b67ffffffffffffffff811115611d2e577f4e487b7100000000000000000000000000000000000000000000000000000000600052604160045260246000fd5b6040519080825280601f01601f191660200182016040528015611d605781602001600182028036833780820191505090505b5090506000604051806060016040528060408152602001613ac2604091399050600181016020830160005b86811015611e045760038101905062ffffff818a015116603f8160121c168401518060081b905060ff603f83600c1c1686015116810190508060081b905060ff603f8360061c1686015116810190508060081b905060ff603f831686015116810190508060e01b90508084526004840193505050611d8b565b506003860660018114611e1e5760028114611e2e57611e39565b613d3d60f01b6002830352611e39565b603d60f81b60018303525b508484525050819450505050505b919050565b611e66828260405180602001604052806000815250612158565b5050565b611e738261152d565b611eb2576040517f08c379a0000000000000000000000000000000000000000000000000000000008152600401611ea990613508565b60405180910390fd5b80600660008481526020019081526020016000209080519060200190611ed9929190612394565b505050565b6001816000016000828254019250508190555050565b611f8e838383604051602401611f0c939291906133ca565b6040516020818303038152906040527fe3849f79000000000000000000000000000000000000000000000000000000007bffffffffffffffffffffffffffffffffffffffffffffffffffffffff19166020820180517bffffffffffffffffffffffffffffffffffffffffffffffffffffffff8381831617835250505050611f93565b505050565b60008151905060006a636f6e736f6c652e6c6f679050602083016000808483855afa5050505050565b505050565b6000611fe28473ffffffffffffffffffffffffffffffffffffffff166121b3565b1561214b578373ffffffffffffffffffffffffffffffffffffffff1663150b7a0261200b611599565b8786866040518563ffffffff1660e01b815260040161202d9493929190613318565b602060405180830381600087803b15801561204757600080fd5b505af192505050801561207857506040513d601f19601f8201168201806040525081019061207591906126d8565b60015b6120fb573d80600081146120a8576040519150601f19603f3d011682016040523d82523d6000602084013e6120ad565b606091505b506000815114156120f3576040517f08c379a00000000000000000000000000000000000000000000000000000000081526004016120ea90613408565b60405180910390fd5b805181602001fd5b63150b7a0260e01b7bffffffffffffffffffffffffffffffffffffffffffffffffffffffff1916817bffffffffffffffffffffffffffffffffffffffffffffffffffffffff191614915050612150565b600190505b949350505050565b61216283836121c6565b61216f6000848484611fc1565b6121ae576040517f08c379a00000000000000000000000000000000000000000000000000000000081526004016121a590613408565b60405180910390fd5b505050565b600080823b905060008111915050919050565b600073ffffffffffffffffffffffffffffffffffffffff168273ffffffffffffffffffffffffffffffffffffffff161415612236576040517f08c379a000000000000000000000000000000000000000000000000000000000815260040161222d90613528565b60405180910390fd5b61223f8161152d565b1561227f576040517f08c379a000000000000000000000000000000000000000000000000000000000815260040161227690613428565b60405180910390fd5b61228b60008383611fbc565b6001600360008473ffffffffffffffffffffffffffffffffffffffff1673ffffffffffffffffffffffffffffffffffffffff16815260200190815260200160002060008282546122db91906136fc565b92505081905550816002600083815260200190815260200160002060006101000a81548173ffffffffffffffffffffffffffffffffffffffff021916908373ffffffffffffffffffffffffffffffffffffffff160217905550808273ffffffffffffffffffffffffffffffffffffffff16600073ffffffffffffffffffffffffffffffffffffffff167fddf252ad1be2c89b69c2b068fc378daa952ba7f163c4a11628f55a4df523b3ef60405160405180910390a45050565b8280546123a0906138c7565b90600052602060002090601f0160209004810192826123c25760008555612409565b82601f106123db57805160ff1916838001178555612409565b82800160010185558215612409579182015b828111156124085782518255916020019190600101906123ed565b5b509050612416919061241a565b5090565b5b8082111561243357600081600090555060010161241b565b5090565b600061244a61244584613674565b613643565b90508281526020810184848401111561246257600080fd5b61246d848285613885565b509392505050565b60008135905061248481613a40565b92915050565b60008135905061249981613a57565b92915050565b6000813590506124ae81613a6e565b92915050565b6000815190506124c381613a6e565b92915050565b600082601f8301126124da57600080fd5b81356124ea848260208601612437565b91505092915050565b60008135905061250281613a85565b92915050565b60006020828403121561251a57600080fd5b600061252884828501612475565b91505092915050565b6000806040838503121561254457600080fd5b600061255285828601612475565b925050602061256385828601612475565b9150509250929050565b60008060006060848603121561258257600080fd5b600061259086828701612475565b93505060206125a186828701612475565b92505060406125b2868287016124f3565b9150509250925092565b600080600080608085870312156125d257600080fd5b60006125e087828801612475565b94505060206125f187828801612475565b9350506040612602878288016124f3565b925050606085013567ffffffffffffffff81111561261f57600080fd5b61262b878288016124c9565b91505092959194509250565b6000806040838503121561264a57600080fd5b600061265885828601612475565b92505060206126698582860161248a565b9150509250929050565b6000806040838503121561268657600080fd5b600061269485828601612475565b92505060206126a5858286016124f3565b9150509250929050565b6000602082840312156126c157600080fd5b60006126cf8482850161249f565b91505092915050565b6000602082840312156126ea57600080fd5b60006126f8848285016124b4565b91505092915050565b60006020828403121561271357600080fd5b6000612721848285016124f3565b91505092915050565b61273381613811565b82525050565b61274281613823565b82525050565b6000612753826136b9565b61275d81856136cf565b935061276d818560208601613894565b61277681613a2f565b840191505092915050565b600061278c826136c4565b61279681856136e0565b93506127a6818560208601613894565b6127af81613a2f565b840191505092915050565b60006127c5826136c4565b6127cf81856136f1565b93506127df818560208601613894565b80840191505092915050565b600081546127f8816138c7565b61280281866136f1565b9450600182166000811461281d576001811461282e57612861565b60ff19831686528186019350612861565b612837856136a4565b60005b838110156128595781548189015260018201915060208101905061283a565b838801955050505b50505092915050565b60006128776032836136e0565b91507f4552433732313a207472616e7366657220746f206e6f6e20455243373231526560008301527f63656976657220696d706c656d656e74657200000000000000000000000000006020830152604082019050919050565b60006128dd601c836136e0565b91507f4552433732313a20746f6b656e20616c7265616479206d696e746564000000006000830152602082019050919050565b600061291d600a836136f1565b91507f54484952445f574f5244000000000000000000000000000000000000000000006000830152600a82019050919050565b600061295d6024836136e0565b91507f4552433732313a207472616e7366657220746f20746865207a65726f2061646460008301527f72657373000000000000000000000000000000000000000000000000000000006020830152604082019050919050565b60006129c36019836136e0565b91507f4552433732313a20617070726f766520746f2063616c6c6572000000000000006000830152602082019050919050565b6000612a036063836136f1565b91507f222c20226465736372697074696f6e223a20224120686967686c79206163636c60008301527f61696d656420636f6c6c656374696f6e206f6620737175617265732e222c202260208301527f696d616765223a2022646174613a696d6167652f7376672b786d6c3b6261736560408301527f36342c00000000000000000000000000000000000000000000000000000000006060830152606382019050919050565b6000612ab5600b836136f1565b91507f5345434f4e445f574f52440000000000000000000000000000000000000000006000830152600b82019050919050565b6000612af5602c836136e0565b91507f4552433732313a206f70657261746f7220717565727920666f72206e6f6e657860008301527f697374656e7420746f6b656e00000000000000000000000000000000000000006020830152604082019050919050565b6000612b5b600d836136f1565b91507f3c2f746578743e3c2f7376673e000000000000000000000000000000000000006000830152600d82019050919050565b6000612b9b6038836136e0565b91507f4552433732313a20617070726f76652063616c6c6572206973206e6f74206f7760008301527f6e6572206e6f7220617070726f76656420666f7220616c6c00000000000000006020830152604082019050919050565b6000612c01602a836136e0565b91507f4552433732313a2062616c616e636520717565727920666f7220746865207a6560008301527f726f2061646472657373000000000000000000000000000000000000000000006020830152604082019050919050565b6000612c676029836136e0565b91507f4552433732313a206f776e657220717565727920666f72206e6f6e657869737460008301527f656e7420746f6b656e00000000000000000000000000000000000000000000006020830152604082019050919050565b6000612ccd602e836136e0565b91507f45524337323155524953746f726167653a2055524920736574206f66206e6f6e60008301527f6578697374656e7420746f6b656e0000000000000000000000000000000000006020830152604082019050919050565b6000612d336002836136f1565b91507f227d0000000000000000000000000000000000000000000000000000000000006000830152600282019050919050565b6000612d736020836136e0565b91507f4552433732313a206d696e7420746f20746865207a65726f20616464726573736000830152602082019050919050565b6000612db36031836136e0565b91507f45524337323155524953746f726167653a2055524920717565727920666f722060008301527f6e6f6e6578697374656e7420746f6b656e0000000000000000000000000000006020830152604082019050919050565b6000612e19602c836136e0565b91507f4552433732313a20617070726f76656420717565727920666f72206e6f6e657860008301527f697374656e7420746f6b656e00000000000000000000000000000000000000006020830152604082019050919050565b6000612e7f6029836136e0565b91507f4552433732313a207472616e73666572206f6620746f6b656e2074686174206960008301527f73206e6f74206f776e00000000000000000000000000000000000000000000006020830152604082019050919050565b6000612ee5602f836136e0565b91507f4552433732314d657461646174613a2055524920717565727920666f72206e6f60008301527f6e6578697374656e7420746f6b656e00000000000000000000000000000000006020830152604082019050919050565b6000612f4b600a836136f1565b91507f7b226e616d65223a2022000000000000000000000000000000000000000000006000830152600a82019050919050565b6000612f8b6021836136e0565b91507f4552433732313a20617070726f76616c20746f2063757272656e74206f776e6560008301527f72000000000000000000000000000000000000000000000000000000000000006020830152604082019050919050565b6000612ff16014836136e0565b91507f4f6e6c79203530204e46547320616c6c6f7765640000000000000000000000006000830152602082019050919050565b6000613031600a836136f1565b91507f46495253545f574f5244000000000000000000000000000000000000000000006000830152600a82019050919050565b6000613071601d836136f1565b91507f646174613a6170706c69636174696f6e2f6a736f6e3b6261736536342c0000006000830152601d82019050919050565b60006130b16031836136e0565b91507f4552433732313a207472616e736665722063616c6c6572206973206e6f74206f60008301527f776e6572206e6f7220617070726f7665640000000000000000000000000000006020830152604082019050919050565b60006131176005836136f1565b91507f434f4c4f520000000000000000000000000000000000000000000000000000006000830152600582019050919050565b6131538161387b565b82525050565b600061316582846127ba565b915081905092915050565b600061317c82856127ba565b915061318882846127ba565b91508190509392505050565b60006131a082866127ba565b91506131ac82856127ba565b91506131b882846127ba565b9150819050949350505050565b60006131d182876127eb565b91506131dd82866127ba565b91506131e982856127eb565b91506131f582846127ba565b915061320082612b4e565b915081905095945050505050565b600061321982612910565b915061322582846127ba565b915081905092915050565b600061323b82612aa8565b915061324782846127ba565b915081905092915050565b600061325d82612f3e565b915061326982856127ba565b9150613274826129f6565b915061328082846127ba565b915061328b82612d26565b91508190509392505050565b60006132a282613024565b91506132ae82846127ba565b915081905092915050565b60006132c482613064565b91506132d082846127ba565b915081905092915050565b60006132e68261310a565b91506132f282846127ba565b915081905092915050565b6000602082019050613312600083018461272a565b92915050565b600060808201905061332d600083018761272a565b61333a602083018661272a565b613347604083018561314a565b81810360608301526133598184612748565b905095945050505050565b6000604082019050613379600083018561272a565b613386602083018461314a565b9392505050565b60006020820190506133a26000830184612739565b92915050565b600060208201905081810360008301526133c28184612781565b905092915050565b600060608201905081810360008301526133e48186612781565b90506133f3602083018561314a565b613400604083018461272a565b949350505050565b600060208201905081810360008301526134218161286a565b9050919050565b60006020820190508181036000830152613441816128d0565b9050919050565b6000602082019050818103600083015261346181612950565b9050919050565b60006020820190508181036000830152613481816129b6565b9050919050565b600060208201905081810360008301526134a181612ae8565b9050919050565b600060208201905081810360008301526134c181612b8e565b9050919050565b600060208201905081810360008301526134e181612bf4565b9050919050565b6000602082019050818103600083015261350181612c5a565b9050919050565b6000602082019050818103600083015261352181612cc0565b9050919050565b6000602082019050818103600083015261354181612d66565b9050919050565b6000602082019050818103600083015261356181612da6565b9050919050565b6000602082019050818103600083015261358181612e0c565b9050919050565b600060208201905081810360008301526135a181612e72565b9050919050565b600060208201905081810360008301526135c181612ed8565b9050919050565b600060208201905081810360008301526135e181612f7e565b9050919050565b6000602082019050818103600083015261360181612fe4565b9050919050565b60006020820190508181036000830152613621816130a4565b9050919050565b600060208201905061363d600083018461314a565b92915050565b6000604051905081810181811067ffffffffffffffff8211171561366a57613669613a00565b5b8060405250919050565b600067ffffffffffffffff82111561368f5761368e613a00565b5b601f19601f8301169050602081019050919050565b60008190508160005260206000209050919050565b600081519050919050565b600081519050919050565b600082825260208201905092915050565b600082825260208201905092915050565b600081905092915050565b60006137078261387b565b91506137128361387b565b9250827fffffffffffffffffffffffffffffffffffffffffffffffffffffffffffffffff0382111561374757613746613973565b5b828201905092915050565b600061375d8261387b565b91506137688361387b565b925082613778576137776139a2565b5b828204905092915050565b600061378e8261387b565b91506137998361387b565b9250817fffffffffffffffffffffffffffffffffffffffffffffffffffffffffffffffff04831182151516156137d2576137d1613973565b5b828202905092915050565b60006137e88261387b565b91506137f38361387b565b92508282101561380657613805613973565b5b828203905092915050565b600061381c8261385b565b9050919050565b60008115159050919050565b60007fffffffff0000000000000000000000000000000000000000000000000000000082169050919050565b600073ffffffffffffffffffffffffffffffffffffffff82169050919050565b6000819050919050565b82818337600083830152505050565b60005b838110156138b2578082015181840152602081019050613897565b838111156138c1576000848401525b50505050565b600060028204905060018216806138df57607f821691505b602082108114156138f3576138f26139d1565b5b50919050565b60006139048261387b565b91507fffffffffffffffffffffffffffffffffffffffffffffffffffffffffffffffff82141561393757613936613973565b5b600182019050919050565b600061394d8261387b565b91506139588361387b565b925082613968576139676139a2565b5b828206905092915050565b7f4e487b7100000000000000000000000000000000000000000000000000000000600052601160045260246000fd5b7f4e487b7100000000000000000000000000000000000000000000000000000000600052601260045260246000fd5b7f4e487b7100000000000000000000000000000000000000000000000000000000600052602260045260246000fd5b7f4e487b7100000000000000000000000000000000000000000000000000000000600052604160045260246000fd5b6000601f19601f8301169050919050565b613a4981613811565b8114613a5457600080fd5b50565b613a6081613823565b8114613a6b57600080fd5b50565b613a778161382f565b8114613a8257600080fd5b50565b613a8e8161387b565b8114613a9957600080fd5b5056fe416e204e465420772f20494420257320686173206265656e206d696e74656420746f2025734142434445464748494a4b4c4d4e4f505152535455565758595a6162636465666768696a6b6c6d6e6f707172737475767778797a303132333435363738392b2fa26469706673582212200ececbf48f5a93e1ce8c571727a5e396956d58ade393a8a2e6edda049fedf2cc64736f6c634300080000333c73766720786d6c6e733d27687474703a2f2f7777772e77332e6f72672f323030302f73766727207072657365727665417370656374526174696f3d27784d696e594d696e206d656574272076696577426f783d273020302033353020333530273e3c7374796c653e2e62617365207b2066696c6c3a2077686974653b20666f6e742d66616d696c793a2073657269663b20666f6e742d73697a653a20323470783b207d3c2f7374796c653e3c726563742077696474683d273130302527206865696768743d2731303025272066696c6c3d27272f3e3c7465787420783d273530252720793d273530252720636c6173733d27626173652720646f6d696e616e742d626173656c696e653d276d6964646c652720746578742d616e63686f723d276d6964646c65273e",
  "linkReferences": {},
  "deployedLinkReferences": {}
}