{
  "_format": "hh-sol-artifact-1",
  "contractName": "WavePortal",
  "sourceName": "contracts/WavePortal.sol",
  "abi": [
    {
      "inputs": [],
      "stateMutability": "payable",
      "type": "constructor"
    },
    {
      "anonymous": false,
      "inputs": [
        {
          "indexed": true,
          "internalType": "address",
          "name": "from",
          "type": "address"
        },
        {
          "indexed": false,
          "internalType": "uint256",
          "name": "timestamp",
          "type": "uint256"
        },
        {
          "indexed": false,
          "internalType": "string",
          "name": "message",
          "type": "string"
        }
      ],
      "name": "NewWave",
      "type": "event"
    },
    {
      "inputs": [],
      "name": "getAllWaves",
      "outputs": [
        {
          "components": [
            {
              "internalType": "address",
              "name": "waver",
              "type": "address"
            },
            {
              "internalType": "string",
              "name": "message",
              "type": "string"
            },
            {
              "internalType": "uint256",
              "name": "timestamp",
              "type": "uint256"
            }
          ],
          "internalType": "struct WavePortal.Wave[]",
          "name": "",
          "type": "tuple[]"
        }
      ],
      "stateMutability": "view",
      "type": "function"
    },
    {
      "inputs": [],
      "name": "getTotalWaves",
      "outputs": [
        {
          "internalType": "uint256",
          "name": "",
          "type": "uint256"
        }
      ],
      "stateMutability": "view",
      "type": "function"
    },
    {
      "inputs": [
        {
          "internalType": "address",
          "name": "addr",
          "type": "address"
        }
      ],
      "name": "getWavesByAddress",
      "outputs": [
        {
          "internalType": "uint256",
          "name": "",
          "type": "uint256"
        }
      ],
      "stateMutability": "view",
      "type": "function"
    },
    {
      "inputs": [
        {
          "internalType": "address",
          "name": "",
          "type": "address"
        }
      ],
      "name": "lastWavedAt",
      "outputs": [
        {
          "internalType": "uint256",
          "name": "",
          "type": "uint256"
        }
      ],
      "stateMutability": "view",
      "type": "function"
    },
    {
      "inputs": [
        {
          "internalType": "string",
          "name": "_message",
          "type": "string"
        }
      ],
      "name": "wave",
      "outputs": [],
      "stateMutability": "nonpayable",
      "type": "function"
    }
  ],
  "bytecode": "0x6080604052620000336040518060600160405280602581526020016200143e602591396200003960201b6200072c1760201c565b620001cd565b620000d98160405160240162000050919062000146565b6040516020818303038152906040527f41304fac000000000000000000000000000000000000000000000000000000007bffffffffffffffffffffffffffffffffffffffffffffffffffffffff19166020820180517bffffffffffffffffffffffffffffffffffffffffffffffffffffffff8381831617835250505050620000dc60201b60201c565b50565b60008151905060006a636f6e736f6c652e6c6f679050602083016000808483855afa5050505050565b600062000112826200016a565b6200011e818562000175565b93506200013081856020860162000186565b6200013b81620001bc565b840191505092915050565b6000602082019050818103600083015262000162818462000105565b905092915050565b600081519050919050565b600082825260208201905092915050565b60005b83811015620001a657808201518184015260208101905062000189565b83811115620001b6576000848401525b50505050565b6000601f19601f8301169050919050565b61126180620001dd6000396000f3fe608060405234801561001057600080fd5b50600436106100575760003560e01c8063449d46c01461005c5780636dfad43e146100785780639a2cdc08146100a8578063a42a4663146100c6578063bd43a908146100f6575b600080fd5b61007660048036038101906100719190610b0e565b610114565b005b610092600480360381019061008d9190610ae5565b61052f565b60405161009f9190610f53565b60405180910390f35b6100b0610578565b6040516100bd9190610f53565b60405180910390f35b6100e060048036038101906100db9190610ae5565b6105c3565b6040516100ed9190610f53565b60405180910390f35b6100fe6105db565b60405161010b9190610e11565b60405180910390f35b42610384600260003373ffffffffffffffffffffffffffffffffffffffff1673ffffffffffffffffffffffffffffffffffffffff168152602001908152602001600020546101629190611070565b106101a2576040517f08c379a000000000000000000000000000000000000000000000000000000000815260040161019990610f33565b60405180910390fd5b42600260003373ffffffffffffffffffffffffffffffffffffffff1673ffffffffffffffffffffffffffffffffffffffff1681526020019081526020016000208190555060016000808282546101f89190611070565b925050819055506001600360003373ffffffffffffffffffffffffffffffffffffffff1673ffffffffffffffffffffffffffffffffffffffff168152602001908152602001600020600082825461024f9190611070565b925050819055506102956040518060400160405280600d81526020017f2573206861732077617665642100000000000000000000000000000000000000815250336107c5565b6103146040518060400160405280601581526020017f2573206861732077617665642025732074696d6573000000000000000000000081525033600360003373ffffffffffffffffffffffffffffffffffffffff1673ffffffffffffffffffffffffffffffffffffffff16815260200190815260200160002054610861565b600160405180606001604052803373ffffffffffffffffffffffffffffffffffffffff16815260200183815260200142815250908060018154018082558091505060019003906000526020600020906003020160009091909190915060008201518160000160006101000a81548173ffffffffffffffffffffffffffffffffffffffff021916908373ffffffffffffffffffffffffffffffffffffffff16021790555060208201518160010190805190602001906103d39291906109c5565b506040820151816002015550503373ffffffffffffffffffffffffffffffffffffffff167f5f7e16dc676677766a70e9c5628aa6c54ddb8b6e5188e2ae1e1f17f1ffbea7164283604051610428929190610f6e565b60405180910390a26000655af3107a400090504781111561047e576040517f08c379a000000000000000000000000000000000000000000000000000000000815260040161047590610ef3565b60405180910390fd5b60003373ffffffffffffffffffffffffffffffffffffffff16826040516104a490610dfc565b60006040518083038185875af1925050503d80600081146104e1576040519150601f19603f3d011682016040523d82523d6000602084013e6104e6565b606091505b505090508061052a576040517f08c379a000000000000000000000000000000000000000000000000000000000815260040161052190610f13565b60405180910390fd5b505050565b6000600360008373ffffffffffffffffffffffffffffffffffffffff1673ffffffffffffffffffffffffffffffffffffffff168152602001908152602001600020549050919050565b60006105bb6040518060400160405280601681526020017f5765206861766520256420746f74616c20776176657300000000000000000000815250600054610900565b600054905090565b60026020528060005260406000206000915090505481565b60606001805480602002602001604051908101604052809291908181526020016000905b8282101561072357838290600052602060002090600302016040518060600160405290816000820160009054906101000a900473ffffffffffffffffffffffffffffffffffffffff1673ffffffffffffffffffffffffffffffffffffffff1673ffffffffffffffffffffffffffffffffffffffff16815260200160018201805461068890611144565b80601f01602080910402602001604051908101604052809291908181526020018280546106b490611144565b80156107015780601f106106d657610100808354040283529160200191610701565b820191906000526020600020905b8154815290600101906020018083116106e457829003601f168201915b50505050508152602001600282015481525050815260200190600101906105ff565b50505050905090565b6107c2816040516024016107409190610e33565b6040516020818303038152906040527f41304fac000000000000000000000000000000000000000000000000000000007bffffffffffffffffffffffffffffffffffffffffffffffffffffffff19166020820180517bffffffffffffffffffffffffffffffffffffffffffffffffffffffff838183161783525050505061099c565b50565b61085d82826040516024016107db929190610e55565b6040516020818303038152906040527f319af333000000000000000000000000000000000000000000000000000000007bffffffffffffffffffffffffffffffffffffffffffffffffffffffff19166020820180517bffffffffffffffffffffffffffffffffffffffffffffffffffffffff838183161783525050505061099c565b5050565b6108fb83838360405160240161087993929190610e85565b6040516020818303038152906040527f07c81217000000000000000000000000000000000000000000000000000000007bffffffffffffffffffffffffffffffffffffffffffffffffffffffff19166020820180517bffffffffffffffffffffffffffffffffffffffffffffffffffffffff838183161783525050505061099c565b505050565b6109988282604051602401610916929190610ec3565b6040516020818303038152906040527f9710a9d0000000000000000000000000000000000000000000000000000000007bffffffffffffffffffffffffffffffffffffffffffffffffffffffff19166020820180517bffffffffffffffffffffffffffffffffffffffffffffffffffffffff838183161783525050505061099c565b5050565b60008151905060006a636f6e736f6c652e6c6f679050602083016000808483855afa5050505050565b8280546109d190611144565b90600052602060002090601f0160209004810192826109f35760008555610a3a565b82601f10610a0c57805160ff1916838001178555610a3a565b82800160010185558215610a3a579182015b82811115610a39578251825591602001919060010190610a1e565b5b509050610a479190610a4b565b5090565b5b80821115610a64576000816000905550600101610a4c565b5090565b6000610a7b610a7684610fcf565b610f9e565b905082815260208101848484011115610a9357600080fd5b610a9e848285611102565b509392505050565b600081359050610ab581611214565b92915050565b600082601f830112610acc57600080fd5b8135610adc848260208601610a68565b91505092915050565b600060208284031215610af757600080fd5b6000610b0584828501610aa6565b91505092915050565b600060208284031215610b2057600080fd5b600082013567ffffffffffffffff811115610b3a57600080fd5b610b4684828501610abb565b91505092915050565b6000610b5b8383610d8e565b905092915050565b610b6c816110c6565b82525050565b610b7b816110c6565b82525050565b6000610b8c8261100f565b610b968185611032565b935083602082028501610ba885610fff565b8060005b85811015610be45784840389528151610bc58582610b4f565b9450610bd083611025565b925060208a01995050600181019050610bac565b50829750879550505050505092915050565b6000610c018261101a565b610c0b818561104e565b9350610c1b818560208601611111565b610c2481611203565b840191505092915050565b6000610c3a8261101a565b610c44818561105f565b9350610c54818560208601611111565b610c5d81611203565b840191505092915050565b6000610c7560358361105f565b91507f547279696e6720746f207769746864726177206d6f7265206d6f6e657920746860008301527f616e2074686520636f6e747261637420686f6c647300000000000000000000006020830152604082019050919050565b6000610cdb60278361105f565b91507f4661696c656420746f207769746864726177206d6f6e65792066726f6d20636f60008301527f6e74726163742e000000000000000000000000000000000000000000000000006020830152604082019050919050565b6000610d41600083611043565b9150600082019050919050565b6000610d5b600f8361105f565b91507f77616974203135206d696e7574657300000000000000000000000000000000006000830152602082019050919050565b6000606083016000830151610da66000860182610b63565b5060208301518482036020860152610dbe8282610bf6565b9150506040830151610dd36040860182610dde565b508091505092915050565b610de7816110f8565b82525050565b610df6816110f8565b82525050565b6000610e0782610d34565b9150819050919050565b60006020820190508181036000830152610e2b8184610b81565b905092915050565b60006020820190508181036000830152610e4d8184610c2f565b905092915050565b60006040820190508181036000830152610e6f8185610c2f565b9050610e7e6020830184610b72565b9392505050565b60006060820190508181036000830152610e9f8186610c2f565b9050610eae6020830185610b72565b610ebb6040830184610ded565b949350505050565b60006040820190508181036000830152610edd8185610c2f565b9050610eec6020830184610ded565b9392505050565b60006020820190508181036000830152610f0c81610c68565b9050919050565b60006020820190508181036000830152610f2c81610cce565b9050919050565b60006020820190508181036000830152610f4c81610d4e565b9050919050565b6000602082019050610f686000830184610ded565b92915050565b6000604082019050610f836000830185610ded565b8181036020830152610f958184610c2f565b90509392505050565b6000604051905081810181811067ffffffffffffffff82111715610fc557610fc46111d4565b5b8060405250919050565b600067ffffffffffffffff821115610fea57610fe96111d4565b5b601f19601f8301169050602081019050919050565b6000819050602082019050919050565b600081519050919050565b600081519050919050565b6000602082019050919050565b600082825260208201905092915050565b600081905092915050565b600082825260208201905092915050565b600082825260208201905092915050565b600061107b826110f8565b9150611086836110f8565b9250827fffffffffffffffffffffffffffffffffffffffffffffffffffffffffffffffff038211156110bb576110ba611176565b5b828201905092915050565b60006110d1826110d8565b9050919050565b600073ffffffffffffffffffffffffffffffffffffffff82169050919050565b6000819050919050565b82818337600083830152505050565b60005b8381101561112f578082015181840152602081019050611114565b8381111561113e576000848401525b50505050565b6000600282049050600182168061115c57607f821691505b602082108114156111705761116f6111a5565b5b50919050565b7f4e487b7100000000000000000000000000000000000000000000000000000000600052601160045260246000fd5b7f4e487b7100000000000000000000000000000000000000000000000000000000600052602260045260246000fd5b7f4e487b7100000000000000000000000000000000000000000000000000000000600052604160045260246000fd5b6000601f19601f8301169050919050565b61121d816110c6565b811461122857600080fd5b5056fea264697066735822122052c6ed2ebdab4e1e5e50b4f89988a46b7d90f422973c617baaac83173a084e8f64736f6c63430008000033596f20796f2c204920616d206120636f6e747261637420616e64204920616d20736d617274",
  "linkReferences": {},
  "deployedLinkReferences": {}
}